:100000000C9434000C943E000C943E000C943E0082
:100010000C943E000C943E000C943E000C943E0068
:100020000C943E000C943E000C943E000C943E0058
:100030000C943E000C943E000C943E000C943E0048
:100040000C943E000C943E000C943E000C943E0038
:100050000C943E000C943E000C943E000C943E0028
:100060000C943E000C943E0011241FBECFEFD8E04C
:10007000DEBFCDBF0E9440000C94A2000C94000093
:10008000569A85B5816085BD84B5836084BD85B58C
:10009000886085BD84B5806484BD88E287BD85E0C5
:1000A00090E0EAE0F0E02FE936E841E0215030400E
:1000B0004040E1F700C0000025B5277F25BD181698
:1000C000190684F420E030E05FEF6AE147EB51501D
:1000D00060404040E1F700C000002F5F3F4F28170D
:1000E000390791F725B5286025BD0196BF010E940B
:1000F0007A00D9CF97FB072E16F4009407D077FD2E
:1001000009D00E948E0007FC05D03EF490958195A1
:100110009F4F0895709561957F4F0895AA1BBB1B53
:1001200051E107C0AA1FBB1FA617B70710F0A61BF7
:10013000B70B881F991F5A95A9F780959095BC0118
:08014000CD010895F894FFCFF2
:00000001FF
